{
  "contractName": "gor",
  "abi": [
    {
      "constant": true,
      "inputs": [
        {
          "name": "",
          "type": "address"
        }
      ],
      "name": "dt",
      "outputs": [
        {
          "name": "name",
          "type": "string"
        },
        {
          "name": "pno",
          "type": "uint256"
        },
        {
          "name": "quantity",
          "type": "uint256"
        },
        {
          "name": "amount",
          "type": "uint256"
        },
        {
          "name": "purchase_time",
          "type": "uint256"
        }
      ],
      "payable": false,
      "stateMutability": "view",
      "type": "function"
    },
    {
      "constant": true,
      "inputs": [],
      "name": "price4",
      "outputs": [
        {
          "name": "",
          "type": "uint256"
        }
      ],
      "payable": false,
      "stateMutability": "view",
      "type": "function"
    },
    {
      "constant": true,
      "inputs": [],
      "name": "price2",
      "outputs": [
        {
          "name": "",
          "type": "uint256"
        }
      ],
      "payable": false,
      "stateMutability": "view",
      "type": "function"
    },
    {
      "constant": true,
      "inputs": [],
      "name": "price1",
      "outputs": [
        {
          "name": "",
          "type": "uint256"
        }
      ],
      "payable": false,
      "stateMutability": "view",
      "type": "function"
    },
    {
      "constant": true,
      "inputs": [],
      "name": "price3",
      "outputs": [
        {
          "name": "",
          "type": "uint256"
        }
      ],
      "payable": false,
      "stateMutability": "view",
      "type": "function"
    },
    {
      "inputs": [],
      "payable": false,
      "stateMutability": "nonpayable",
      "type": "constructor"
    },
    {
      "constant": false,
      "inputs": [
        {
          "name": "_name",
          "type": "string"
        },
        {
          "name": "_productno",
          "type": "uint256"
        },
        {
          "name": "_pq",
          "type": "uint256"
        }
      ],
      "name": "Purchase",
      "outputs": [],
      "payable": true,
      "stateMutability": "payable",
      "type": "function"
    }
  ],
  "bytecode": "0x608060405266024f2beb1aa0006000556601e2083dbb20006001556601902d7bb380006002556601353a6b39400060035534801561003c57600080fd5b5033600460006101000a81548173ffffffffffffffffffffffffffffffffffffffff021916908373ffffffffffffffffffffffffffffffffffffffff16021790555061086c8061008d6000396000f3fe608060405260043610610072576000357c010000000000000000000000000000000000000000000000000000000090048063043604fc1461007757806304a47afd1461015d578063273786841461022c57806327a3181d146102575780636caf25ce14610282578063d778c911146102ad575b600080fd5b34801561008357600080fd5b506100c66004803603602081101561009a57600080fd5b81019080803573ffffffffffffffffffffffffffffffffffffffff1690602001909291905050506102d8565b6040518080602001868152602001858152602001848152602001838152602001828103825287818151815260200191508051906020019080838360005b8381101561011e578082015181840152602081019050610103565b50505050905090810190601f16801561014b5780820380516001836020036101000a031916815260200191505b50965050505050505060405180910390f35b61022a6004803603606081101561017357600080fd5b810190808035906020019064010000000081111561019057600080fd5b8201836020820111156101a257600080fd5b803590602001918460018302840111640100000000831117156101c457600080fd5b91908080601f016020809104026020016040519081016040528093929190818152602001838380828437600081840152601f19601f82011690508083019250505050505050919291929080359060200190929190803590602001909291905050506103a6565b005b34801561023857600080fd5b50610241610753565b6040518082815260200191505060405180910390f35b34801561026357600080fd5b5061026c610759565b6040518082815260200191505060405180910390f35b34801561028e57600080fd5b5061029761075f565b6040518082815260200191505060405180910390f35b3480156102b957600080fd5b506102c2610765565b6040518082815260200191505060405180910390f35b6005602052806000526040600020600091509050806000018054600181600116156101000203166002900480601f0160208091040260200160405190810160405280929190818152602001828054600181600116156101000203166002900480156103845780601f1061035957610100808354040283529160200191610384565b820191906000526020600020905b81548152906001019060200180831161036757829003601f168201915b5050505050908060010154908060020154908060030154908060040154905085565b82600560003373ffffffffffffffffffffffffffffffffffffffff1673ffffffffffffffffffffffffffffffffffffffff16815260200190815260200160002060000190805190602001906103fc92919061079b565b5080600560003373ffffffffffffffffffffffffffffffffffffffff1673ffffffffffffffffffffffffffffffffffffffff1681526020019081526020016000206002018190555081600560003373ffffffffffffffffffffffffffffffffffffffff1673ffffffffffffffffffffffffffffffffffffffff1681526020019081526020016000206001018190555034600560003373ffffffffffffffffffffffffffffffffffffffff1673ffffffffffffffffffffffffffffffffffffffff1681526020019081526020016000206003018190555042600560003373ffffffffffffffffffffffffffffffffffffffff1673ffffffffffffffffffffffffffffffffffffffff1681526020019081526020016000206004018190555060018214156105a95761052e8160005461076b565b3414151561053b57600080fd5b600460009054906101000a900473ffffffffffffffffffffffffffffffffffffffff1673ffffffffffffffffffffffffffffffffffffffff166108fc349081150290604051600060405180830381858888f193505050501580156105a3573d6000803e3d6000fd5b5061074e565b6002821415610639576105be8160015461076b565b341415156105cb57600080fd5b600460009054906101000a900473ffffffffffffffffffffffffffffffffffffffff1673ffffffffffffffffffffffffffffffffffffffff166108fc349081150290604051600060405180830381858888f19350505050158015610633573d6000803e3d6000fd5b5061074d565b60038214156106c95761064e8160025461076b565b3414151561065b57600080fd5b600460009054906101000a900473ffffffffffffffffffffffffffffffffffffffff1673ffffffffffffffffffffffffffffffffffffffff166108fc349081150290604051600060405180830381858888f193505050501580156106c3573d6000803e3d6000fd5b5061074c565b6106d58160035461076b565b341415156106e257600080fd5b600460009054906101000a900473ffffffffffffffffffffffffffffffffffffffff1673ffffffffffffffffffffffffffffffffffffffff166108fc349081150290604051600060405180830381858888f1935050505015801561074a573d6000803e3d6000fd5b505b5b5b505050565b60035481565b60015481565b60005481565b60025481565b60008082148061078a5750828283850292508281151561078757fe5b04145b151561079557600080fd5b92915050565b828054600181600116156101000203166002900490600052602060002090601f016020900481019282601f106107dc57805160ff191683800117855561080a565b8280016001018555821561080a579182015b828111156108095782518255916020019190600101906107ee565b5b509050610817919061081b565b5090565b61083d91905b80821115610839576000816000905550600101610821565b5090565b9056fea165627a7a7230582082c992370a8b70cc43ed13b7e73311185886ca38716daa71f612cebd90f670fa0029",
  "source": "pragma solidity 0.5.1;\n\ncontract gor{\n    \n    uint256 public price1 = 0.00065 ether;\n    uint256 public price2 = 0.00053 ether;\n    uint256 public price3 = 0.00044 ether;\n    uint256 public price4 = 0.00034 ether;\n\n    \n    address payable own;\n    \n    constructor () public{\n        own = msg.sender;\n    }\n    \n    struct payment_details{\n        string name;\n        uint pno;\n        uint quantity;\n        uint amount;\n        uint purchase_time;\n        \n    }\n    \n    \n    mapping(address => payment_details) public dt;\n    \n    \n    \n    function mul(uint x, uint y) internal pure returns (uint z) {\n        require(y == 0 || (z = x * y) / y == x);\n    }\n\n\n    \n       function Purchase(string memory _name, uint _productno, uint _pq) public payable{\n\n        dt[msg.sender].name = _name;\n        dt[msg.sender].quantity = _pq;\n        dt[msg.sender].pno = _productno;\n        dt[msg.sender].amount = msg.value ;//mul( _pq, price1) ;\n        dt[msg.sender].purchase_time = now;\n        \n        if(_productno ==1){\n        require(msg.value == mul( _pq, price1)); \n  \n        own.transfer(msg.value);\n\n        }\n        else if(_productno ==2){\n            require(msg.value == mul( _pq, price2)); \n        \n        own.transfer(msg.value);\n            \n        }\n        else if(_productno ==3){\n            require(msg.value == mul( _pq, price3)); \n        \n        own.transfer(msg.value);\n            \n        }\n        else{\n            require(msg.value == mul( _pq, price4)); \n            own.transfer(msg.value);\n            \n        }\n       \n        \n            \n        }\n        \n    }\n    \n    \n    \n    \n",
  "sourcePath": "/home/mihir/Code/Internship/EthereumNFTPlatform/contracts/gor.sol",
  "compiler": {
    "name": "solc",
    "version": "0.5.1+commit.c8a2cb62.Emscripten.clang"
  },
  "schemaVersion": "3.4.10",
  "updatedAt": "2022-11-05T03:07:27.183Z",
  "networkType": "ethereum",
  "devdoc": {
    "methods": {}
  },
  "userdoc": {
    "methods": {}
  }
}